:100000000C9463010C948B010C948B010C948B0168
:100010000C948B010C948B010C948B010C948B0130
:100020000C948B010C948B010C948B010C948B0120
:100030000C948B010C948B010C948B010C948B0110
:100040000C9469130C948B010C94D9130C94B31376
:100050000C948B010C948B010C948B010C948B01F0
:100060000C948B010C948B0100C0C101C30302C22C
:10007000C60607C705C5C404CC0C0DCD0FCFCE0EE8
:100080000ACACB0BC90908C8D81819D91BDBDA1A58
:100090001EDEDF1FDD1D1CDC14D4D515D71716D6C8
:1000A000D21213D311D1D010F03031F133F3F23238
:1000B00036F6F737F53534F43CFCFD3DFF3F3EFEA8
:1000C000FA3A3BFB39F9F83828E8E929EB2B2AEA18
:1000D000EE2E2FEF2DEDEC2CE42425E527E7E62688
:1000E00022E2E323E12120E0A06061A163A3A262F8
:1000F00066A6A767A56564A46CACAD6DAF6F6EAE68
:10010000AA6A6BAB69A9A86878B8B979BB7B7ABAD7
:10011000BE7E7FBF7DBDBC7CB47475B577B7B67647
:1001200072B2B373B17170B05090915193535292B7
:1001300096565797559594549C5C5D9D5F9F9E5E27
:100140005A9A9B5B99595898884849894B8B8A4A97
:100150004E8E8F4F8D4D4C8C448485458747468607
:10016000824243834181804000C1814001C080417F
:1001700001C0804100C1814001C0804100C1814077
:1001800000C1814001C0804101C0804100C1814067
:1001900000C1814001C0804100C1814001C0804157
:1001A00001C0804100C1814001C0804100C1814047
:1001B00000C1814001C0804100C1814001C0804137
:1001C00001C0804100C1814000C1814001C0804127
:1001D00001C0804100C1814001C0804100C1814017
:1001E00000C1814001C0804101C0804100C1814007
:1001F00000C1814001C0804100C1814001C08041F7
:1002000001C0804100C1814000C1814001C08041E6
:1002100001C0804100C1814001C0804100C18140D6
:1002200000C1814001C0804100C1814001C08041C6
:1002300001C0804100C1814001C0804100C18140B6
:1002400000C1814001C0804101C0804100C18140A6
:1002500000C1814001C0804100C1814001C0804196
:1002600001C0804100C18140000000002300260041
:10027000290000000000240027002A0000000000E0
:10028000250028002B0004040404040404040202D2
:100290000202020203030303030301020408102005
:1002A0004080010204081020010204081020000010
:1002B0000008000201000003040700000000000025
:1002C00000000B14071811241FBECFEFD8E0DEBFCB
:1002D000CDBF25E0A0E9B4E001C01D92A53BB20767
:1002E000E1F714E0A0E0B1E0E6EDFEE302C0059026
:1002F0000D92A039B107D9F711E0C2E6D1E004C0F0
:100300002197FE010E94D719C136D107C9F70E9473
:1003100089140C945E1F0C94000020918B05309181
:100320008C05821793074CF04091890550918A05FE
:10033000420F531F841795074CF084EE9BE2909375
:10034000AA058093A90590E080E00895821B930B95
:100350002091990530919A05820F931FFC016083CB
:1003600081E090E0089520919705309198058217DB
:1003700093074CF04091950550919605420F531FFD
:100380008417950754F084EE9BE29093AA0580931E
:10039000A9056FEF7FEFCB010895821B930B880FA8
:1003A000991F20919F053091A005820F931FFC019A
:1003B0006081718190E080E0089520918B053091FB
:1003C0008C05821793074CF04091890550918A055E
:1003D000420F531F841795074CF084EE9BE29093D5
:1003E000AA058093A9058FEF9FEF0895821B930BB9
:1003F0002091990530919A05820F931FFC0180810D
:1004000090E0089581E00895FC01808D882349F0F3
:1004100084859585DC01ED91FC910190F081E02DC2
:10042000099481E090E09383828390E080E00895D6
:10043000DC011C968D919C91DC01ED91FC91068074
:10044000F781E02D0994DC011C968D919C91DC01D3
:10045000ED91FC910284F385E02D0994DC011C965A
:100460008D919C91DC01ED91FC910484F585E02D4A
:100470000994DC011C968D919C91DC01ED91FC911D
:100480000084F185E02D0994EF92FF920F931F9362
:10049000DC01ED91FC910488F589E02DA2E3EA2EC0
:1004A000F12C02E310E009951F910F91FF90EF905E
:1004B0000895EF92FF920F931F93DC01ED91FC9151
:1004C0000488F589E02D7801890126E030E009955E
:1004D0001F910F91FF90EF900895EF92FF920F936D
:1004E0001F93DC01ED91FC910488F589E02D22E356
:1004F000E22EF12C02E310E026E030E009951F9196
:100500000F91FF90EF900895833081F028F48130AF
:1005100099F08230A9F008958730A9F08830C9F0A9
:100520008430B1F4809180008F7D03C08091800081
:100530008F7780938000089584B58F7784BD089568
:1005400084B58F7DFBCF8091B0008F778093B00012
:1005500008958091B0008F7DF9CF1F93CF93DF93E3
:10056000282F30E0F901E255FD4F8491F901E6565C
:10057000FD4FD491F901EA57FD4FC491CC23A9F066
:10058000162F81110E948402EC2FF0E0EE0FFF1F66
:10059000E458FD4FA591B4918FB7F894EC911111E7
:1005A00008C0D095DE23DC938FBFDF91CF911F91E0
:1005B0000895DE2BF8CFCF93DF9390E0FC01E65651
:1005C000FD4F24918A579D4FFC0184918823D1F0DF
:1005D00090E0880F991FFC01EE58FD4FA591B49152
:1005E000FC01E458FD4FC591D49161110EC09FB735
:1005F000F8948C91E22FE0958E238C932881E2234E
:10060000E8839FBFDF91CF9108958FB7F894EC9165
:10061000E22BEC938FBFF6CF0F931F93CF93DF9313
:100620008C01FC01C485D585E881F9810680F781BC
:10063000E02DCE010995EA89FB8980818F7E808338
:10064000EA89FB898081877F8083EA89FB898081B1
:100650008F778083EA89FB8980818F7D80838A8D73
:10066000898FF8018289938997FD08C060E00E9414
:10067000AD0260E0F80180890E94DB02F801808908
:10068000918997FD0CC060E00E94AD0260E0F80126
:100690008289DF91CF911F910F910C94DB02DF9142
:1006A000CF911F910F9108958E50806480937C00AC
:1006B00080917A00806480937A0080917A0086FD30
:1006C000FCCF809178009091790008958230910557
:1006D00038F0880F991F880F991F05970197F1F738
:1006E00008953FB7F8948091C5049091C604A091F5
:1006F000C704B091C80426B5A89B05C02F3F19F0C8
:100700000196A11DB11D3FBFBA2FA92F982F882791
:10071000BC01CD01620F711D811D911D42E0660F6C
:10072000771F881F991F4A95D1F708958F929F923E
:10073000AF92BF92CF92DF92EF92FF926B017C015A
:100740000E9471034B015C01C114D104E104F10466
:10075000B9F00E947103681979098A099B09683EFA
:1007600073408105910580F321E0C21AD108E108A8
:10077000F10888EE880E83E0981EA11CB11CE4CF1E
:10078000FF90EF90DF90CF90BF90AF909F908F90B1
:1007900008952FB7F8946091C1047091C2048091BC
:1007A000C3049091C4042FBF0895AF92BF92CF921B
:1007B000DF92EF92FF920F931F93CF93DF936C0121
:1007C0007B018B01040F151FEB015E01AE18BF0802
:1007D000C017D10759F06991D601ED91FC910190B4
:1007E000F081E02DC6010995892B79F7C501DF91CC
:1007F000CF911F910F91FF90EF90DF90CF90BF901E
:10080000AF90089590E080E00895FC01538D448DF1
:10081000252F30E0842F90E0821B930B541710F0AB
:10082000CF96089501970895FC01918D828D9817B8
:1008300061F0A28DAE0FBF2FB11D5D968C91928D90
:100840009F5F9F73928F90E008958FEF9FEF0895C1
:10085000FC01918D828D981731F0828DE80FF11D8A
:10086000858D90E008958FEF9FEF0895FC01918DA5
:10087000228D892F90E0805C9F4F821B91098F739E
:100880009927089589EC94E00E94360421E0892B91
:1008900009F420E0822F089580E090E0892B29F070
:1008A0000E94420481110C9400000895CF92DF92BF
:1008B000EF92FF921F93CF93DF93EC016A017B01CC
:1008C000122FE889F98982E08083C11481EED8066D
:1008D000E104F104A1F060E079E08DE390E0A7018C
:1008E00096010E94961921503109410951095695E6
:1008F000479537952795211580E1380798F0E889C5
:10090000F989108260E874E88EE190E0A701960111
:100910000E94961921503109410951095695479570
:1009200037952795EC85FD853083EE85FF852083FF
:10093000188EEC89FD891083EA89FB8980818061AA
:100940008083EA89FB89808188608083EA89FB89CA
:10095000808180688083EA89FB8980818F7D8083A4
:10096000DF91CF911F91FF90EF90DF90CF9008958E
:100970008F929F92AF92BF92DF92EF92FF920F936E
:100980001F93CF93DF93EC014A015B01D22E898E36
:100990009A8EAB8EBC8E2D8F3E8F8C899D89009751
:1009A00009F08C010C8B1D8B8E899F89009709F0B3
:1009B0007C01EE8AFF8A8889998997FD07C061E0EA
:1009C0000E94DB0260E088890E94AD028A899B89CF
:1009D00097FD07C061E00E94DB0261E08A890E9406
:1009E000AD02188E2D2DB501A4018C859D85DF915A
:1009F000CF911F910F91FF90EF90DF90BF90AF903C
:100A00009F908F900C945604FC01A48DA80FB92FD1
:100A1000B11DA35ABF4F2C91848D90E001968F7326
:100A20009927848FA689B7892C93A089B1898C9145
:100A3000837080648C93938D848D981306C0028894
:100A4000F389E02D80818F7D80830895EF92FF925E
:100A50000F931F93CF93DF93EC0181E0888F9B8DE1
:100A60008C8D98131AC0E889F989808185FF15C09B
:100A70009FB7F894EE89FF896083E889F9898081BE
:100A80008370806480839FBF81E090E0DF91CF918D
:100A90001F910F91FF90EF900895F62E0B8D10E0AF
:100AA0000F5F1F4F0F731127E02E8C8D8E110CC01E
:100AB0000FB607FCFACFE889F989808185FFF5CF69
:100AC000CE010E940405F1CFEB8DEC0FFD2FF11D3F
:100AD000E35AFF4FF0829FB7F8940B8FEA89FB89A6
:100AE00080818062CFCFCF93DF93EC01888D882304
:100AF000B9F0AA89BB89E889F9898C9185FD03C081
:100B0000808186FD0DC00FB607FCF7CF8C9185FF65
:100B1000F2CF808185FFEDCFCE010E940405E9CFA1
:100B2000DF91CF910895009741F0DC015896ED9147
:100B3000FC9104A0F5A1E02D09940895009741F0DF
:100B4000DC015896ED91FC91068CF78DE02D09940F
:100B50000895009741F0DC015896ED91FC91048CCA
:100B6000F58DE02D099486E190E09093AA0580939D
:100B7000A9058FEF9FEF0895009741F0DC0158968B
:100B8000ED91FC9100A0F1A1E02D099486E190E0A7
:100B90009093AA058093A9058FEF9FEF0895CF93B7
:100BA000DF93EC01288539854A855B85A8EEB3E0A3
:100BB0000E9445190E9496038C859D85DF91CF91F7
:100BC0000C9466032F923F924F925F926F927F92A6
:100BD0008F929F92AF92BF92CF92DF92EF92FF924D
:100BE0000F931F93CF93DF93CDB7DEB72A970FB63E
:100BF000F894DEBF0FBECDBF7C013B012A01DC01B2
:100C00005896ED91FC915997028113810F5F1F4F08
:100C1000312C212C452BB1F018968D919D910D9082
:100C2000BC91A02D89839A83AB83BC83F701848513
:100C30009585A685B7858D839E83AF83B887CE01C2
:100C400001961C01D12CC12C912C812CD7015896D6
:100C5000ED91FC910115110549F4008CF18DE02D09
:100C6000A401B301C70109955C0129C002A0F3A149
:100C7000E02D9801A101BE01675F7F4FC701099573
:100C80005C01D7019FEFA916B906F1F516968C9174
:100C900081FD04C0AA24AA94BA2C11C00091A90510
:100CA0001091AA050437110521F5C7010E94CF054F
:100CB000C7010E94BC051093AA050093A905C501B0
:100CC0002A960FB6F894DEBF0FBECDBFDF91CF914D
:100CD0001F910F91FF90EF90DF90CF90BF90AF905A
:100CE0009F908F907F906F905F904F903F902F904C
:100CF0000895023FBDE21B07F1F6C7010E949E0561
:100D0000C7010E94A905D7CF5896ED91FC9106889E
:100D1000F789E02DA801B301680D791DC701099578
:100D20006115710509F582EF9DE29093AA05809304
:100D3000A905F701868181FFADCF0091A90510912A
:100D4000AA05023FFDE21F0721F00F36110509F049
:100D5000A1CFC7010E949E05C7010E94A90510935B
:100D6000AA050093A90596CF6F3F760711F3860E6B
:100D7000971E061B170B09F099C0D7015896ED91E5
:100D8000FC91C114D10441F0CA94CD2809F457C094
:100D900082E0C82ED12C5ACFA281B381A60DB71DF7
:100DA0008C9141145104B9F490E087309105D4F04E
:100DB0009C012F5031092230310508F47CC0863166
:100DC000910509F47EC04797D1F5CC24C394D12C6A
:100DD00009E010E015C0813158F48F3018F48550C7
:100DE000823048F4CC24C394D12C04E010E008C035
:100DF000863109F466C0CC24C394D12C01E010E004
:100E0000F701408951896289738984899589A68906
:100E1000B789411551056105710529F40097A105B0
:100E2000B10509F413CF49835A836B837C838D8387
:100E30009E83AF83B887CE0101961C0107CFA281A4
:100E4000B381A60DB71D8C914114510401F58F306B
:100E500020F08131A8F08731B9F084819581080FA5
:100E6000191F9401200F311F8681978182179307E4
:100E7000D4F48FEE9BE29093AA058093A9050ACF44
:100E800015960C9110E0E9CF19960C91FBCF90E0EC
:100E9000853091052CF08131910511F04797E9F6E5
:100EA00011960C91EFCF52E0C52ED12C10161106E1
:100EB0000CF4A6CFCBCECC24C394D12C05E010E00B
:100EC0009FCFCC24C394D12C06E010E099CF6F9231
:100ED0007F928F929F92AF92BF92CF92DF92EF92CA
:100EE000FF920F931F93CF93DF93FA018901DC01E7
:100EF0005A966D907C90C12CD12C76013097C1F020
:100F00002081318142815381A8EEB3E00E944519CE
:100F10006B017C01648175818681978128EE33E0C5
:100F200040E050E00E949619C20ED31EE41EF51E4A
:100F30000E94C9034B015C01F30186819781DC01AA
:100F4000ED91FC910084F185E02D0995EC0180176D
:100F500091075CF40E94C903681979098A099B0901
:100F60006C157D058E059F0538F3209741F484E7C5
:100F700090E09093AA058093A905CFEFDFEFCE0113
:100F8000DF91CF911F910F91FF90EF90DF90CF9065
:100F9000BF90AF909F908F907F906F900895CF9368
:100FA000DF93DC015A96CD91DC918E819F81DC012B
:100FB000ED91FC910084F185E02D0995892B51F08C
:100FC0008E819F81DC01ED91FC910284F385E02DFF
:100FD0000995EBCF90E080E0DF91CF910895CF931A
:100FE000DF93DC015A96CD91DC91EE81FF818289FD
:100FF000938997FD03C061E00E94AD028E819F81BD
:10100000DC01ED91FC910688F789E02DDF91CF910D
:101010000994CF93DF93DC015A96CD91DC918E81B8
:101020009F812C813D81488159816A817B81DC01CE
:10103000ED91FC910088F189E02D0995EE81FF8109
:101040008289938997FD03C060E00E94AD0290E021
:1010500080E0DF91CF910895FB018081FA019081BA
:10106000891759F0882349F083EF9BE29093AA05F2
:101070008093A9058FEF9FEF089590E080E0089599
:101080008F929F92AF92BF92CF92DF92EF92FF9298
:101090000F931F93CF93DF936A01DC015A96ED9172
:1010A000FC91068117817B01D0E0C0E0CC15DD0505
:1010B00028F50E94C903F8016087718782879387AA
:1010C000D801ED91FC910284F385E02DC8010995CA
:1010D00097FF24C00E94C903F80180849184A284F0
:1010E000B384681979098A099B0984809580A68050
:1010F000B780681579058A059B0510F3BE0190E05D
:1011000080E0DF91CF911F910F91FF90EF90DF90E2
:10111000CF90BF90AF909F908F900895D7018D93FF
:101120007D012196C3CFCF93DF93FC01C28DD38D78
:1011300028853985232B59F041E050E00E94E205D3
:101140001986188690E080E0DF91CF91089550E0F5
:1011500040E00E94E2050097B9F721E030E03987CE
:101160002887F2CFCF92DF92EF92FF920F931F93D7
:10117000CF93DF937B016A01DC015A96CD91DC911C
:10118000EE81FF818289938997FD03C061E00E940F
:10119000AD020E811F81F8018089918997FD0BC0F6
:1011A00061E00E94AD02D80154968D919C91009708
:1011B00011F00E94660381E0F801808F8E819F818B
:1011C000DC01ED91FC910280F381E02DA601B701D5
:1011D00009956C01F12CE12C0E811F81F8018485A9
:1011E0009585DC01ED91FC910680F781E02D099554
:1011F000F8018089918997FD0CC0868997890097AD
:1012000011F00E94660360E0D80150968C910E9414
:10121000AD02F801108EEE81FF818289938997FDDE
:1012200003C060E00E94AD02C701B601DF91CF911B
:101230001F910F91FF90EF90DF90CF900895FB01E9
:101240008081918102979183808390E080E008956E
:10125000DC01680F791F8FEF9FEFA617B70769F0C2
:101260002D91292730E0F901E859FE4F94919827F4
:10127000F901E859FF4F8491F0CF0895EF92FF9262
:101280000F931F93CF93DF937C01EB018A01888139
:1012900090E0F701208131812817390711F0892B5F
:1012A00051F5B80162507109CE010E942809C00FA2
:1012B000D11FFE01329720812197388123273227C1
:1012C00023278217930779F0F701868182FF03C0F5
:1012D000C7010E94CF078EEE9BE29093AA058093F0
:1012E000A9050FEF1FEFC801DF91CF911F910F915B
:1012F000FF90EF90089510E000E0F5CF0F931F935B
:10130000CF93DF93EC018B010E942809C00FD11FFE
:1013100098838983C8010296DF91CF911F910F9125
:101320000895FC012081FB012083FC018281FB01E7
:10133000818382E090E00895683F710530F4FC01FC
:101340007183608390E080E0089586E190E090935F
:10135000AA058093A9058FEF9FEF0895CF92DF92A2
:10136000EF92FF926B017C0120E030E048E454E40E
:101370000E94EB1A181644F160910001709101016E
:1013800090E080E00E9410189B01AC01C701B601FB
:101390000E94EB1A1816D4F46091020170910301B7
:1013A00090E080E00E9410189B01AC01C701B601DB
:1013B0000E940B18881F8827881F91E08927FF90BB
:1013C000EF90DF90CF90089583E0F9CF81E0F7CFE1
:1013D000CF92DF92EF92FF920F931F93CF93DF9301
:1013E000C091A404D091A5048E01000F111F0057D5
:1013F0001B4FF80140815181052E000C660B770BC5
:10140000C090A604D090A704E090A804F090A9048E
:10141000C41AD50AE60AF70A82E10E945403F801C9
:1014200091838083092E000CAA0BBB0BBC01CD015C
:101430006C0D7D1D8E1D9F1D6093A6047093A704E7
:101440008093A8049093A9042196CA30D1055CF535
:10145000D093A504C093A4042AE030E040E050E01B
:101460000E94B819CA01B9010E94121823E333E39C
:1014700043EA5BE30E94711823E333E343EB50E458
:101480000E9471186093AE047093AF048093B0040F
:101490009093B104DF91CF911F910F91FF90EF9046
:1014A000DF90CF9008951092A5041092A404D4CF99
:1014B0002091930530919405821793074CF0409149
:1014C000910550919205420F531F841795074CF0D8
:1014D00084EE9BE29093AA058093A90590E080E0BA
:1014E0000895821B930B880F991F20919D053091C1
:1014F0009E05820F931FFC017183608381E090E061
:101500000895EF92FF920F931F93CF93DF938C0177
:10151000E090A105F090A2058CE190E00E94F01A05
:10152000EC018FEF9FEF998388839B838A831D82D1
:101530001C821F821E82188619861A861B8680E2EC
:1015400091EAA7E0B0E08C879D87AE87BF87188AB5
:10155000198A1A8A1B8A8C8B9D8BAE8BBF8B8CE46D
:1015600091E0998F888F8AE090E00E94F01AFC0148
:101570009B8F8A8FF782E68280E096E9A0E0B0E058
:1015800080839183A283B38386E090E095838483F4
:10159000118610868091990590919A05009711F017
:1015A0000E948C1B80919B0590919C05009711F0E7
:1015B0000E948C1B80919D0590919E05009711F0D3
:1015C0000E948C1B80919F059091A005009711F0BF
:1015D0000E948C1BE9E8F5E088E1DF011D928A9505
:1015E000E9F78091870590918805009741F00E9466
:1015F0009E0580918705909188050E949305D09360
:101600008805C093870590E080E0209769F0E88D19
:10161000F98D0084F185E02DB801CE010995CE0148
:101620000E94A90581E090E0DF91CF911F910F9179
:10163000FF90EF900895CF93DF93EC018A8D9B8DFF
:101640000E948C1BCE01DF91CF910C948C1BCF9309
:10165000DF93EC0186EA91E0998388838C899D89E8
:10166000009711F00E948C1B8E899F89009711F0C2
:101670000E948C1B888D998D009711F00E948C1B05
:101680008A8D9B8D009711F00E948C1B8A819B8113
:10169000009721F0DF91CF910C949305DF91CF91CA
:1016A0000895CF93DF93EC010E94270BCE01DF91C9
:1016B000CF910C948C1B0E94D21C0F931F93F801A6
:1016C000DC018D919C918F3F980711F40E94D21CF0
:1016D00080836183528343833483258386E090E053
:1016E0001F910F910895FB0101900020E9F73197B8
:1016F000AF01461B570BDC01ED91FC910280F38199
:10170000E02D09948F929F92AF92BF92EF92FF9239
:101710000F931F93CF93DF93CDB7DEB7A1970FB68B
:10172000F894DEBF0FBECDBF7C01FA01CB0119A238
:10173000223008F42AE08E010F5D1F4F822E912C7B
:10174000B12CA12CBF01A50194010E949619F901A9
:10175000CA016A300CF5605DD8016E938D01232BB0
:10176000242B252B79F790E080E0109721F0BD0124
:10177000C7010E94730BA1960FB6F894DEBF0FBE8F
:10178000CDBFDF91CF911F910F91FF90EF90BF9050
:10179000AF909F908F900895695CDECF8F929F925B
:1017A000AF92BF92CF92DF92EF92FF920F931F936F
:1017B000CF93DF937C01EB016C0182E0C80ED11C5A
:1017C0004701E5E08E0E911C10E000E0F60141912A
:1017D0006F0150E070E060E02AE0CE010E94820BD1
:1017E0005C01E881F9810190F081E02D6EE2CE018B
:1017F00009958A0D9B1D080F191FC814D90431F7CC
:10180000F701458150E070E060E02AE0CE010E94DF
:10181000820B800F911FDF91CF911F910F91FF904D
:10182000EF90DF90CF90BF90AF909F908F900895F2
:10183000BF92CF92DF92EF92FF920F931F93CF93BD
:10184000DF93CDB7DEB7EC84FD84CE84DF84B88827
:101850000A891B89D70114968D919C91892B59F087
:10186000AE01485E5F4F6E897F898091AF05909190
:10187000B0050E94E01C8C899D89892B31F0C7013D
:101880000E94CF05C7010E94BC05F60182819381A9
:1018900080589F4F93838283D7015896ED91FC9196
:1018A0000484F585E02DB801C6010995F801E80F1B
:1018B000F91FB0820196DF91CF911F910F91FF9098
:1018C000EF90DF90CF90BF9008952F923F924F926C
:1018D0005F926F927F928F929F92AF92BF92CF92C0
:1018E000DF92EF92FF920F931F93CF93DF93CDB7C9
:1018F000DEB7C851D2400FB6F894DEBF0FBECDBFE1
:10190000FC01A281B381109701F586E190E09093EC
:10191000AA058093A905C85EDD4F0FB6F894DEBF17
:101920000FBECDBFDF91CF911F910F91FF90EF9030
:10193000DF90CF90BF90AF909F908F907F906F90EF
:101940005F904F903F902F9008955C017E01FBEFD8
:10195000EF1AFEEFFF0A5896ED91FC915997048813
:10196000F589E02DB701CD010995181619069CF6E9
:10197000D50112964D905C90C55FDD4F99838883A9
:10198000CB50D2404114510409F4BFCFD201589634
:10199000ED91FC91C280D380A4E0B1E0AC0FBD1FFB
:1019A000AC0DBD1D8C91282F30E0CD5EDD4F39830D
:1019B0002883C351D240A7014C0D5D1DC15FDD4F8F
:1019C00059834883CF50D240DA019C90092D10E012
:1019D000A6E0B1E0AC0FBD1FAC0DBD1D2C90312CAD
:1019E000322C2224A7E0B1E0AC0FBD1FAC0DBD1D11
:1019F0008C91280E311C3E01BBEF6B1ABDEF7B0AA8
:101A0000D30111963C932E9313961C930E93129729
:101A10000684F785E02DBE01655F7D4FC7010995FE
:101A2000F30195838483EFEFE90DE73108F06BC58F
:101A3000F0E0E35EF24F0C94D719340D340D600ED4
:101A4000600EF10E490FCE1083128312831283129F
:101A50008312831283127E0F2D109D108312831226
:101A600083128312D1101D110230110509F04CC0F0
:101A7000D5011A964D915C911B9718962D913C912A
:101A800019975696AD90BC9086EC91E0E8E0F1E0B5
:101A9000EC0FFD1FEC0DFD1DE080F12CFE2CEE2463
:101AA000E9E0F1E0EC0FFD1FEC0DFD1D6081E60E9D
:101AB000F11CB70161507109603D774078F127E072
:101AC0002F9320ED2F939F938F93FF92EF928AEFA6
:101AD00091E09F938F931F9281E08F9321E030E0FC
:101AE0002C0F3D1F3F932F931F9283E08F937F9284
:101AF0006F925F924F920E94180C8C010FB6F8946F
:101B0000DEBF0FBECDBF6EC0F50146815781248177
:101B10003581A488B5888CEB91E0B8CF6101C41AF7
:101B2000D50AD7FC08C047018C0C9D1C2815390527
:101B3000E4F42E0C3F1C9F938F933F922F9282E2EE
:101B400092E09F938F931F921F9261E070E06C0F61
:101B50007D1F7F936F931F9282E08F937F926F928E
:101B60005F924F920E94180CC8CFD2015896ED9107
:101B7000FC910484F585E02DBE016F5F7F4FC301AA
:101B800009958C010F5F1F4FE1E0F0E0EC0FFD1FA6
:101B90008E0F9F1F21E0A70147705527452B09F4A1
:101BA00020E0F3E0F594E794FA95E1F7E20EDC012A
:101BB000EC92F501EC0DFD1D30E020E090E080E0BE
:101BC000AF014A195B09481559050CF460C0892B0F
:101BD00049F0E1E0F0E0EC0FFD1FE00FF11F208382
:101BE0000F5F1F4FCD5EDD4F28813981C351D24039
:101BF000232B09F490CED2015896ED91FC910088E8
:101C0000F189E02DB801CE01019609958C01D20130
:101C10005896ED91FC910288F389E02DA801BE0150
:101C20006F5F7F4FC20109957B016F3F7F4FD9F4F2
:101C3000F201868181FF17C0C090A905D090AA0546
:101C4000C201F2EFCF16FDE2DF0609F06CC40E947C
:101C50009E05C2010E94CF05C2010E94A905D09233
:101C6000AA05C092A905D20116968C9181FF04C0E5
:101C7000BFEFEB16FB0659F21E141F040CF04BCEFF
:101C80000E151F0509F447CE8FEE9BE240CE419121
:101C900050E0082E02C0440F551F0A94E2F7242B8F
:101CA000352B8730910551F4A1E0B0E0AC0FBD1F9A
:101CB000A00FB11F2C930F5F1F4F7ECF019680CFD7
:101CC00004301105B1F5F501468557852485358524
:101CD000808C918C86ED91E0E8E0F1E0EC0FFD1F47
:101CE000EC0DFD1D008110E0102F0027E9E0F1E070
:101CF000EC0FFD1FEC0DFD1D6081060F111DB801DD
:101D000061507109FE0131966F016D37710500F167
:101D10001F922DE72F939F938F931F930F938AEF1B
:101D200091E09F938F931F9281E08F93FF93EF93A6
:101D3000DBCED50152964D915C91539750962D91E3
:101D40003C9151975A968D909C908BEE91E0C4CF28
:101D50007101E41AF50A5701F7FC07C0E00EF11E05
:101D60002E153F057CF4200E311E9F938F933F92DA
:101D70002F9282E292E09F938F931F921F92DF92A5
:101D8000CF92E9CED2015896ED91FC910484F5856D
:101D9000E02DB601C3010995F601E80FF91F000F08
:101DA00000839501220F331F820E931E0196F601C8
:101DB000E80FF91F8F010C191D09AE14BF040CF0B8
:101DC00011CFD40111968C91B2E08B0E911C8083BF
:101DD000D40112978C9181832FEFA21AB20A329606
:101DE000E9CFD50116968D919C911797A101481BBB
:101DF000590BCE01019657FD06C014962D913C91CA
:101E0000421753074CF03F922F9224E432E03F9365
:101E10002F931F921F928EC1E8E0F1E0EC0FFD1F9F
:101E2000EC0DFD1D208130E0322F2227E9E0F1E0AA
:101E3000EC0FFD1FEC0DFD1D6081260F311D2115DE
:101E4000FFEF3F0719F021153105B1F4D501549684
:101E5000ED91FC91E40FF51F41E0232B09F440E0E4
:101E60004083C55FDD4F08811981CB50D240A80166
:101E7000B7010E94D71CB6CE3F922F923F932F936B
:101E80002DE632E03F932F931F921F929F938F93E3
:101E900061C0D50152968D919C9153979101281B59
:101EA000390BCE01019637FD07C050964D915C91DC
:101EB0005197241735072CF03F922F922BEA32E0EE
:101EC000A6CF220F331F5A96ED91FC91E20FF31F1C
:101ED000A8E0B1E0AC0FBD1FAC0DBD1D2C9130E0F2
:101EE000322F2227A9E0B1E0AC0FBD1FAC0DBD1D04
:101EF0004C91240F311D31832083B3CFE8E0F1E012
:101F0000EC0FFD1FEC0DFD1D808190E0982F8827C0
:101F1000E9E0F1E0EC0FFD1FEC0DFD1D2081820FCB
:101F2000911D9C0121503109203B3740B0F027E042
:101F30002F9320EB2F939F938F9389ED92E09F93A4
:101F40008F931F9281E08F93E1E0F0E0EC0FFD1F93
:101F5000FF93EF931F9283E000CED50116962D914B
:101F60003C911797F101E21BF30B9F01F7FD0CC0A9
:101F7000BC016E0F7F1F14964D915C91159746170B
:101F80005707D4F4280E391E3F922F928DE093E02C
:101F90009F938F931F921F9221E030E02C0F3D1FE3
:101FA0003F932F931F9282E08F937F926F925F9265
:101FB0004F920E94180CA1CD56E0C50ED11C54962C
:101FC0000D911C91200F311FF90150E040E081E09C
:101FD00090E08C0F9D1FC80ED91ECF01801B910B66
:101FE00086179707F0F0D2015896ED91FC91048482
:101FF000F585E02DBE016F5F7F4FC3010995A1E01C
:10200000B0E0AC0FBD1FA80FB91FF701E80FF91F13
:1020100024E001900D922A95E1F78C010C5F1F4F8F
:10202000E1CDCF01821B930BA3E096958795AA95EE
:10203000E1F78C0D9D1D8C5F9E4FDC018C9190E033
:10204000042E02C0959587950A94E2F781708193DA
:102050004F5F5F4F47705527C0CFE8E0F1E0EC0FCE
:10206000FD1FEC0DFD1D208130E0322F2227E9E01D
:10207000F1E0EC0FFD1FEC0DFD1D8081280F311DDF
:10208000C90101978B37910578F01F928BE78F93E9
:102090003F932F9387E393E09F938F931F9281E069
:1020A0008F93CE010196F2CED50152968D919C91DF
:1020B0005397F101E81BF90BCF01F7FD31C0A901DE
:1020C0004E0F5F1F50966D917C916417750734F128
:1020D000C15FDD4FE881F981CF50D2409C01220FD2
:1020E000331F2E193F092C193D09841795070CF051
:1020F0007ACFD5015A966D917C91DB01A20FB31F67
:10210000AE0FBF1F668170E0762F66271781610FC3
:10211000711D6D937C9301963296E7CF220E331E8C
:102120003F922F9280E793E09F938F931F921F928D
:10213000CE0101969F938F9335CFD2015896ED91A2
:10214000FC910484F585E02DBE016F5F7F4FC301D4
:102150000995FE01E80FF91F24EB2283FE01E80F29
:10216000F91F2FEF2383DC011396E1E0F0E0EC0F81
:10217000FD1FAE0FBF1F28E0EFE9F3E001900D92C5
:102180002A95E1F78C01055F1F4FE1E0F0E0EC0FCD
:10219000FD1FE80FF91F8AE0808324CD8DE690E0D3
:1021A000B6CBD50152968D919C915397F101E81BC6
:1021B000F90BCE010196F7FD7FCE50962D913C9103
:1021C0005197E217F3070CF077CEEE0FFF1F5A96E8
:1021D0002D913C91E20FF31FAAE0B1E0AC0FBD1FBF
:1021E000AC0DBD1D2C9130E0322F2227ABE0B1E0C9
:1021F000AC0FBD1FAC0DBD1D4C91240F311DA8E0CF
:10220000B1E0AC0FBD1FAC0DBD1D4C91642F70E053
:10221000762F6627A9E0B1E0AC0FBD1FAC0DBD1D48
:102220004C91460F572F511D608171816227732792
:1022300046235723242735275ECEE8E0F1E0EC0F54
:10224000FD1FEC0DFD1D808190E0982F8827E9E0AF
:10225000F1E0EC0FFD1FEC0DFD1D2081FC01E20FF4
:10226000F11DC35FDD4FF983E883CD50D240ECE030
:10227000F1E0EC0FFD1FEC0DFD1D808190E0982F2B
:102280008827EDE0F1E0EC0FFD1FEC0DFD1D208136
:10229000820F911D9C01215031098E010F5F1F4F4C
:1022A00029373105C0F4C35FDD4F28813981CD5016
:1022B000D240215031092D37310568F4EEE0F1E0CC
:1022C000EC0FFD1FEC0DFD1D40819C01220F331F03
:1022D0004217130639F11F922DE72F931F9229E71A
:1022E0002F93C25FDD4FF881CE50D240FF93C35F82
:1022F000DD4F2881CD50D2402F939F938F9388EA52
:1023000093E09F938F931F9281E08F931F930F937E
:102310001F9283E08F937F926F925F924F920E9401
:10232000180CEBCBEAE0F1E0EC0FFD1FEC0DFD1D0E
:10233000208130E0322F2227EBE0F1E0EC0FFD1F8F
:10234000EC0DFD1D4081240F311DD50152964D919C
:102350005C9153977101E41AF50ACF5EDD4FF98263
:10236000E882C151D240F901E41BF50BAF014F01E6
:10237000F7FCDFC0C35FDD4F68817981CD50D2406B
:102380006E0D7F1DCB5EDD4F79836883C551D240D2
:1023900050966D917C91CB5EDD4FA881B981C5517E
:1023A000D2406A177B0764F0FC01E40FF51FC95E99
:1023B000DD4FF983E883C751D2406E177F07DCF405
:1023C00057FD04C0280F391FF7FC08C0C35FDD4F5D
:1023D00048815981CD50D240240E351E3F932F9312
:1023E0003F922F9284EF93E09F938F931F921F92BF
:1023F0001F930F93B0CBD2015896ED91FC910484BA
:10240000F585E02DB801C3010995F801E80FF91F22
:10241000C35FDD4F2881CD50D240220F2083C15FA2
:10242000DD4FE881F981CF50D240AE014B5F5E4F66
:102430009401220F331F241B350B2C193D09C95E53
:10244000DD4F48815981C751D240841695060CF45E
:1024500043C0F801E80FF91F9701220F331F201B1B
:10246000310BB901681B790BCB0141E050E0401BF7
:10247000510B8A010E0F1F1FCB5EDD4F68817981E2
:10248000C551D240CF5EDD4FA881B981C151D24044
:10249000A617B7070CF0A6CBBC016E0F7F1FD501A6
:1024A0005A962D913C91DB01A20FB31F11962C91EE
:1024B000119721832C912283CF5EDD4F28813981B2
:1024C000C151D2402F5F3F4FCF5EDD4F398328830C
:1024D000C151D2403296CDCFD5015A964D915C91E3
:1024E000DA01A20FB31FAE0FBF1F428550E0542F79
:1024F00044276385460F511D4D935C93BFEF8B1AA4
:102500009B0A32969CCF1F929F9285E494E09F9302
:102510008F931F9281E08F939E012F5F3F4F3F93D8
:102520002F931F9241CD0E94CF05C2010E94BC058E
:1025300096CBF7FF47CF52CF0C9437190C942F1935
:102540008F929F92AF92BF92CF92DF92EF92FF92C3
:102550000F931F93CF93DF93CDB7DEB7C054D1094C
:102560000FB6F894DEBF0FBECDBF80E4ECE0F1E023
:10257000DE01119601900D928A95E1F710E000E0DE
:1025800088248A94982C5401C8010E942F19940120
:102590002827D501C9018F709927AA27BB27880F43
:1025A000991F880F991F41E050E04C0F5D1F840F69
:1025B000951FFC01C080D180E280F38034E0B694A6
:1025C000A794979487943A95D1F7C824D924EA24FC
:1025D000FB24C8010E942F1990E044E0959587954F
:1025E0004A95E1F7092E000CAA0BBB0B8C259D2503
:1025F000AE25BF258F709927AA27BB27880F991F63
:10260000880F991F21E030E02C0F3D1F820F931F90
:10261000FC0180809180A280B38064E0F694E7940E
:10262000D794C7946A95D1F78C249D24AE24BF24F7
:1026300080949094A094B0940F5F1F4F0C3FF3E0F0
:102640001F0709F0A1CFC501B401C05CDF4F0FB671
:10265000F894DEBF0FBECDBFDF91CF911F910F91D8
:10266000FF90EF90DF90CF90BF90AF909F908F90B2
:1026700008950F931F93CF93DF930E94A012EB0155
:10268000182F092F6093AA04D093AB048093AC0455
:102690009093AD048CEF93E00E949E12801312C0C1
:1026A0008DEF93E00E949E1281130CC08EEF93E099
:1026B0000E949E128D1306C08FEF93E00E949E121F
:1026C00091E08C1390E0892FDF91CF911F910F91B2
:1026D00008951F920F920FB60F9211242F933F93DC
:1026E0008F939F93AF93BF938091C1049091C20445
:1026F000A091C304B091C4043091C00423E0230F1F
:102700002D3758F50196A11DB11D2093C00480936B
:10271000C1049093C204A093C304B093C4048091F5
:10272000C5049091C604A091C704B091C804019655
:10273000A11DB11D8093C5049093C604A093C70446
:10274000B093C804BF91AF919F918F913F912F910A
:102750000F900FBE0F901F90189526E8230F02963A
:10276000A11DB11DD2CF1F920F920FB60F9211244F
:102770002F933F934F935F936F937F938F939F9389
:10278000AF93BF93EF93FF9389EC94E00E9404050D
:10279000FF91EF91BF91AF919F918F917F916F9139
:1027A0005F914F913F912F910F900FBE0F901F900F
:1027B00018951F920F920FB60F9211242F938F939B
:1027C0009F93EF93FF93E091D904F091DA04808115
:1027D000E091DF04F091E00482FD1BC090818091C4
:1027E000E2048F5F8F732091E304821741F0E09140
:1027F000E204F0E0E753FB4F958F8093E204FF91F2
:10280000EF919F918F912F910F900FBE0F901F907E
:1028100018958081F4CFCF93DF93A6E6B5E01396A9
:102820001C921E92129748EE53E060E070E01496FE
:102830004D935D936D937C93179786E791E0119686
:102840009C938E93E9ECF4E01D96FC93EE931C9719
:1028500081E090E01F969C938E931E9784E090E019
:1028600051969C938E9350978FEF9FEF53969C9326
:102870008E93529755961C921E92549757961C927F
:102880001E92569758961C92589713821282448330
:1028900055836683778384E991E09183808385EC17
:1028A00090E09587848784EC90E09787868780EC1A
:1028B00090E0918B808B81EC90E0938B828B82EC0B
:1028C00090E0958B848B86EC90E0978B868B118EB5
:1028D000128E138E148EE5E8F5E01382128229E839
:1028E00035E088E1E90119928A95E9F780EB91E0FA
:1028F00091838083B58FA48FE3EAF5E08AEB91E0C2
:10290000918380831282138214821582DF91CF918A
:102910000895CF93DF9300D000D01F92CDB7DEB7DC
:10292000789484B5826084BD84B5816084BD85B5AA
:10293000826085BD85B5816085BD80916E008160B6
:1029400080936E001092810080918100826080935C
:10295000810080918100816080938100809180005E
:102960008160809380008091B10084608093B10089
:102970008091B00081608093B00080917A00846083
:1029800080937A0080917A00826080937A008091AF
:102990007A00816080937A0080917A0080688093C9
:1029A0007A001092C10026E040E056E960E070E055
:1029B00089EC94E00E94560461E084E00E94DB020E
:1029C00061E087E00E94DB0261E085E00E94DB02BB
:1029D00061E086E00E94DB0260E084E00E94AD02DC
:1029E00060E087E00E94AD0260E085E00E94AD02F9
:1029F00060E086E00E94AD020E943913882331F026
:102A000081E090E00E949E128F3F99F480E290E076
:102A10000E94810A892B09F56AE674E089EC94E04A
:102A20000E94730B6DE874E089EC94E00E94730BD4
:102A3000FFCF082E000C990B0E94810A892B69F4A4
:102A40006AE674E089EC94E00E94730B6DE874E030
:102A500089EC94E00E94730BFFCF64E070E08091FA
:102A6000990590919A050E94151C90939A05809360
:102A70009905009709F053C210928C0510928B05AE
:102A800010928A05109289056CE070E080919D0596
:102A900090919E050E94151C90939E0580939D0524
:102AA000009709F04EC2109294051092930510926F
:102AB00092051092910566E070E080919F059091DB
:102AC000A0050E94151C9093A00580939F05009778
:102AD00009F049C210929805109297051092960538
:102AE0001092950560E170E081E090E00E94580A44
:102AF00061E090E080E00E948D0161E081E090E083
:102B00000E948D0161E082E090E00E948D0160E012
:102B100083E090E00E948D010E943913882309F41C
:102B200034C282E090E00E949E128F3F09F42DC2D1
:102B3000082E000C990B9093050180930401FAE094
:102B4000F9830E94E8092981215029832111F9CFB5
:102B500098EE292E93E0392E08EB14E085E895E0F5
:102B60000E94650C90E080E00E94B3016031710525
:102B70008105910509F00CC281E090E00E94B3014B
:102B8000698381E090E00E949C1281E090E00E94C5
:102B90009E123981632F330F770B8617170609F5BD
:102BA0000E94A0126093AA047093AB048093AC04BB
:102BB0009093AD04692F8CEF93E00E949C1260917A
:102BC000AC048DEF93E00E949C126091AB048EEFF9
:102BD00093E00E949C126091AA048FEF93E00E9400
:102BE0009C1220E030E048EC52E46091AE04709119
:102BF000AF048091B0049091B1040E9471180E94BA
:102C0000BC1A82E090E00E94580A6091B304062E3C
:102C1000000C770B83E090E00E94580A6091B404A6
:102C2000062E000C770B84E090E00E94580A609119
:102C3000B504062E000C770B85E090E00E94580A40
:102C40006091B604062E000C770B86E090E00E949F
:102C5000580A6091B20483E090E00E948D010E94C6
:102C6000C9034B015C0190E080E00E94DD01892BEB
:102C700009F4EFC08091BC049091BD04A091BE0402
:102C8000B091BF04B501A401481B590B6A0B7B0B23
:102C90002091040130910501229DC001239D900DDA
:102CA000329D900D1124B0E0A0E0481759076A0743
:102CB0007B0708F4CEC08092BC049092BD04A09221
:102CC000BE04B092BF0461E085E00E94AD0262E301
:102CD00070E080E090E00E94960381E10E9454033E
:102CE000BC01990F880B990B0E94121820E030E26A
:102CF00040E854E40E944A1A20E030E040EA50E400
:102D00000E9471189B01AC010E94DE196B017C01CD
:102D100020E030E040E050E40E94EB1A87FD6CC1F7
:102D200020E030E040E051E4C701B6010E940B18FA
:102D300018160CF461C11092B30455E05D83C12CE8
:102D4000D12C7601C982DA82EB82FC82260137011E
:102D50008EE00E945403BC01990F880B990B0E94CE
:102D600012189B01AC01C301B2010E94DE192B01B4
:102D70003C018FE00E945403BC01990F880B990B12
:102D80000E9412189B01AC0169817A818B819C8120
:102D90000E94DE1969837A838B839C8380E10E9481
:102DA0005403BC01990F880B990B0E9412189B01C8
:102DB000AC01C701B6010E94DE196B017C018D8157
:102DC00081508D838111C4CF20E030E040EA50E48F
:102DD000C301B2010E944A1A0E94AE098093B40452
:102DE00020E030E040EA50E469817A818B819C8167
:102DF0000E944A1A0E94AE098093B50420E030E098
:102E000040EA50E4C701B6010E944A1A0E94AE0986
:102E10008093B60460E085E00E94AD020E94E8095C
:102E200082E090E00E94DD01892B99F0E3EBF4E071
:102E300080E0919191118F5F0E171F07D1F78823C2
:102E400009F4DEC061E086E00E94AD0281E080937B
:102E5000B20481E090E00E94DD01892B09F444C0B6
:102E60008091B8049091B904A091BA04B091BB04C8
:102E7000A5019401281B390B4A0B5B0BDA01C90130
:102E8000843F9140A105B10578F18092B8049092F9
:102E9000B904A092BA04B092BB04E5EBF2E08491CD
:102EA000E1EAF2E0F491F983EDE8F2E0F49070E009
:102EB00060E0FF20A1F081110E948402EF2DF0E07C
:102EC000EE0FFF1FE859FD4FA591B4918C91F98148
:102ED000F82391E080E009F490E0692F782F21E059
:102EE000622787E00E94AD0282E090E00E94DD014F
:102EF000892B41F483E090E00E94DD01682F86E099
:102F00000E94AD0240E050E0452B09F427CE0E941C
:102F10004204882309F422CE0E9400001FCE24E040
:102F2000FC0111922A95E9F781E090E090938C05DD
:102F300080938B0584E090E090938A0580938905C7
:102F4000A3CD2CE0FC0111922A95E9F781E090E0F5
:102F5000909394058093930586E090E0909392057A
:102F600080939105A8CD26E0FC0111922A95E9F7FE
:102F700081E090E0909398058093970583E090E03E
:102F80009093960580939505ADCD82E090E0D3CDEA
:102F9000613171058105910591F481E090E00E9415
:102FA000B301698382E090E00E949C1282E090E08D
:102FB0000E949E124981642F440F770BEECD62313F
:102FC00071058105910549F481E090E00E94B3010B
:102FD000709301016093000104CE63317105810596
:102FE000910509F0FECD81E090E00E94B30170935D
:102FF000030160930201F5CD92E09093B3040ACFF0
:1030000060E086E00E94AD021092B20422CF85E813
:1030100095E00C94270B0E944D1808F481E0089568
:10302000E89409C097FB3EF4909580957095619562
:103030007F4F8F4F9F4F9923A9F0F92F96E9BB2718
:103040009395F695879577956795B795F111F8CF94
:10305000FAF4BB0F11F460FF1BC06F5F7F4F8F4FFF
:103060009F4F16C0882311F096E911C0772321F0F5
:103070009EE8872F762F05C0662371F096E8862F8D
:1030800070E060E02AF09A95660F771F881FDAF7E4
:10309000880F9695879597F90895990F0008550F11
:1030A000AA0BE0E8FEEF16161706E807F907C0F0CE
:1030B00012161306E407F50798F0621B730B840BD6
:1030C000950B39F40A2661F0232B242B252B21F4B0
:1030D00008950A2609F4A140A6958FEF811D811D50
:1030E00008950E9484180C94F5180E94E71838F08F
:1030F0000E94EE1820F0952311F00C94DE180C9429
:10310000E41811240C9429190E94061970F3959F54
:10311000C1F3950F50E0551F629FF001729FBB27CE
:10312000F00DB11D639FAA27F00DB11DAA1F649F6A
:103130006627B00DA11D661F829F2227B00DA11D1D
:10314000621F739FB00DA11D621F839FA00D611DA3
:10315000221F749F3327A00D611D231F849F600DC4
:10316000211D822F762F6A2F11249F5750409AF0ED
:10317000F1F088234AF0EE0FFF1FBB1F661F771F79
:10318000881F91505040A9F79E3F510580F00C9444
:10319000DE180C9429195F3FE4F3983ED4F386952A
:1031A00077956795B795F795E7959F5FC1F7FE2BE4
:1031B000880F911D9695879597F9089597F99F67C0
:1031C00080E870E060E008959FEF80EC08950024AF
:1031D0000A941616170618060906089500240A947C
:1031E00012161306140605060895092E0394000C02
:1031F00011F4882352F0BB0F40F4BF2B11F460FF91
:1032000004C06F5F7F4F8F4F9F4F089557FD9058B9
:10321000440F551F59F05F3F71F04795880F97FB9A
:10322000991F61F09F3F79F0879508951216130654
:103230001406551FF2CF4695F1DF08C01616170683
:103240001806991FF1CF86957105610508940895B8
:10325000E894BB2766277727CB0197F90895F9995A
:10326000FECF92BD81BDF89A992780B50895262F8B
:10327000F999FECF1FBA92BD81BD20BD0FB6F8945B
:10328000FA9AF99A0FBE019608950E948719A59F90
:10329000900DB49F900DA49F800D911D1124089551
:1032A0002F923F924F925F926F927F928F929F9256
:1032B000AF92BF92CF92DF92EF92FF920F931F9344
:1032C000CF93DF93CDB7DEB7CA1BDB0B0FB6F894F5
:1032D000DEBF0FBECDBF09942A88398848885F8435
:1032E0006E847D848C849B84AA84B984C884DF80A6
:1032F000EE80FD800C811B81AA81B981CE0FD11D8A
:103300000FB6F894DEBF0FBECDBFED010895A29FAA
:10331000B001B39FC001A39F700D811D1124911DA9
:10332000B29F700D811D1124911D0895A1E21A2EE6
:10333000AA1BBB1BFD010DC0AA1FBB1FEE1FFF1F59
:10334000A217B307E407F50720F0A21BB30BE40BA9
:10335000F50B661F771F881F991F1A9469F76095F0
:103360007095809590959B01AC01BD01CF010895AA
:10337000052E97FB1EF400940E94CF1957FD07D02D
:103380000E94961907FC03D04EF40C94CF19509567
:103390004095309521953F4F4F4F5F4F0895909541
:1033A0008095709561957F4F8F4F9F4F0895EE0FD9
:1033B000FF1F0590F491E02D09945058BB27AA27D0
:1033C0000E94F5190C94F5180E94E71838F00E9435
:1033D000EE1820F039F49F3F19F426F40C94E41809
:1033E0000EF4E095E7FB0C94DE18E92F0E94061915
:1033F00058F3BA17620773078407950720F079F42A
:10340000A6F50C9428190EF4E0950B2EBA2FA02DDA
:103410000B01B90190010C01CA01A0011124FF2781
:10342000591B99F0593F50F4503E68F11A16F0407C
:10343000A22F232F342F4427585FF3CF469537957B
:103440002795A795F0405395C9F77EF41F16BA0B40
:10345000620B730B840BBAF09150A1F0FF0FBB1FEE
:10346000661F771F881FC2F70EC0BA0F621F731F37
:10347000841F48F4879577956795B795F7959E3F94
:1034800008F0B0CF9395880F08F09927EE0F979525
:10349000879508950E945E1A0C94F5180E94EE1804
:1034A00058F00E94E71840F029F45F3F29F00C948F
:1034B000DE1851110C9429190C94E4180E94061975
:1034C00068F39923B1F3552391F3951B550BBB2753
:1034D000AA2762177307840738F09F5F5F4F220F98
:1034E000331F441FAA1FA9F335D00E2E3AF0E0E88F
:1034F00032D091505040E695001CCAF72BD0FE2FD9
:1035000029D0660F771F881FBB1F2617370748076C
:10351000AB07B0E809F0BB0B802DBF01FF27935824
:103520005F4F3AF09E3F510578F00C94DE180C94F2
:1035300029195F3FE4F3983ED4F386957795679514
:10354000B795F7959F5FC9F7880F911D9695879559
:1035500097F90895E1E0660F771F881FBB1F621778
:1035600073078407BA0720F0621B730B840BBA0B36
:10357000EE1F88F7E09508950E940E1988F09F5776
:1035800098F0B92F9927B751B0F0E1F0660F771F87
:10359000881F991F1AF0BA95C9F714C0B13091F07D
:1035A0000E942819B1E008950C942819672F782FEC
:1035B0008827B85F39F0B93FCCF386957795679542
:1035C000B395D9F73EF490958095709561957F4FAE
:1035D0008F4F9F4F08950E944D1808F48FEF089564
:1035E0000F931F93CF93DF938230910510F482E005
:1035F00090E0E091B305F091B40530E020E0B0E058
:10360000A0E0309799F42115310509F44AC0281B30
:10361000390B24303105D8F58A819B8161157105FC
:1036200089F1FB0193838283FE0111C040815181A6
:103630000281138148175907E0F04817590799F498
:10364000109761F012960C93129713961C93329672
:10365000CF01DF91CF911F910F9108950093B30592
:103660001093B405F4CF2115310551F042175307DB
:1036700038F0A901DB019A01BD01DF01F801C1CFDA
:10368000EF01F9CF9093B4058093B305CDCFFE0140
:10369000E20FF31F819391932250310939832883DC
:1036A000D7CF2091B1053091B205232B41F4209161
:1036B0000801309109013093B2052093B1052091A2
:1036C0000601309107012115310541F42DB73EB7B0
:1036D00040910A0150910B01241B350BE091B1057B
:1036E000F091B205E217F307A0F42E1B3F0B281749
:1036F000390778F0AC014E5F5F4F2417350748F06B
:103700004E0F5F1F5093B2054093B1058193919383
:103710009FCFF0E0E0E09CCFCF93DF930097E9F0FC
:10372000FC01329713821282A091B305B091B405C7
:10373000ED0130E020E01097A1F420813181820F6B
:10374000931F2091B1053091B2052817390709F070
:1037500061C0F093B205E093B105DF91CF91089578
:10376000EA01CE17DF07E8F54A815B819E0141152A
:103770005105B1F7E901FB83EA8349915991C40FDF
:10378000D51FEC17FD0761F4808191810296840FAB
:10379000951FE90199838883828193819B838A8322
:1037A000F0E0E0E012968D919C9113970097B9F5A7
:1037B0002D913C911197CD010296820F931F20917C
:1037C000B1053091B2052817390739F6309751F510
:1037D0001092B4051092B305B093B205A093B10551
:1037E000BCCFD383C28340815181840F951FC817FA
:1037F000D90761F44E5F5F4F88819981480F591F47
:10380000518340838A819B81938382832115310573
:1038100009F0B0CFF093B405E093B3059ECFFD015E
:10382000DC01C0CF13821282D7CFB0E0A0E0EBE181
:10383000FCE10C9452198C01009751F4CB010E94C9
:10384000F01A8C01C801CDB7DEB7E0E10C946E1917
:10385000FC01E60FF71F9C0122503109E217F30724
:1038600008F49DC0D901CD91DC911197C617D707F7
:1038700098F0C530D10530F3CE010497861797072D
:1038800008F3C61BD70B2297C193D1936D937C93FA
:10389000CF010E948C1BD6CF5B01AC1ABD0A4C0134
:1038A0008C0E9D1EA091B305B091B405512C412CF6
:1038B000F12CE12C109731F58091B1059091B20572
:1038C0008815990509F05CC04616570608F058C0DF
:1038D0008091060190910701009741F48DB79EB742
:1038E00040910A0150910B01841B950BE817F907D1
:1038F00008F055C0F093B205E093B105F90171836A
:103900006083A0CF8D919C91119712966C90129725
:1039100013967C901397A815B90559F56C0142E0F0
:10392000C40ED11CCA14DB0420F1AC014A195B0996
:10393000DA011296159780F0628273825183408378
:10394000D9016D937C93E114F10471F0D7011396C2
:10395000FC93EE93129776CF22968C0F9D1FF90160
:1039600091838083F301EFCFF093B405E093B30527
:1039700069CF4816590608F42C017D01D3019ACF6E
:10398000CB010E94F01A7C01009749F0AE01B8010A
:103990000E94D71CC8010E948C1B870153CF10E0E6
:1039A00000E050CF81E090E0F8940C945E1FFB01A2
:1039B000DC0102C001900D9241505040D8F70895AB
:1039C000ABE0B0E0E6EEFCE10C9450197C013B0169
:1039D0008A01FC0117821682838181FFC8C1CE0152
:1039E00001965C01F7019381F30193FD859193FFAB
:1039F00081913F01882309F453C1853239F493FD45
:103A0000859193FF81913F01853229F4B70190E0C0
:103A10000E94D01EE7CF912C212C312CFFE1F31511
:103A200038F08B3211F190F4803209F1833229F1B0
:103A300037FC3CC020ED280F2A3050F536FE20C060
:103A40008AE0989E200D1124922E06C08D3291F0AE
:103A5000803371F7689430F8F30193FD859193FFFB
:103A600081913F018111DACF21C0689431F86894C7
:103A700032F8F2CF689433F8EFCF689434F8ECCF93
:103A8000EAE02E9E200D1124222E689435F8E4CF12
:103A90008E3229F436FC04C1689436F8DDCF8C36BA
:103AA00019F4689437F8D8CF8836B1F2982F9F7DF3
:103AB00095549330E0F08336A1F18337C1F183351B
:103AC00009F063C02801F2E04F0E511CF801C080DC
:103AD000D180692D70E036FC02C06FEF7FEFC60128
:103AE0000E94BA1E4C01689437F882010AC00C5F2C
:103AF0001F4FFFE3F98388248394912C6501E89498
:103B000037F833FE2DC0522C8114910471F55520E5
:103B100009F468CFB70180E290E00E94D01E5A9469
:103B2000F6CFF801808189830E5F1F4FE4CF280113
:103B3000F2E04F0E511CF801C080D180692D70E079
:103B400036FC02C06FEF7FEFC6010E94C51E4C011C
:103B50008201D5CFB70180E290E00E94D01E2A9466
:103B60002814190409F0B0F7CECFF60137FC85917F
:103B700037FE81916F01B70190E00E94D01E511075
:103B80005A94F1E08F1A9108BFCF843619F0893624
:103B900009F077C0F80137FE6BC0608171818281C6
:103BA00093810C5F1F4FF32DFF763F2E97FF09C0C7
:103BB00090958095709561957F4F8F4F9F4F68943A
:103BC00037F82AE030E0A5010E94001FC82ECA186D
:103BD0008C2C432C36FE0CC0E89440F8C91440F4F9
:103BE00034FE05C032FC03C0F32DFE7E4F2E892C1F
:103BF00044FE95C0FE01EC0DF11D8081803309F07B
:103C000087C0242D297E422E842D8870582E43FC97
:103C100095C040FE8FC09C2C821418F42C0C922C62
:103C2000981844FE91C0B70180E390E00E94D01E36
:103C300042FE09C088E790E041FE02C088E590E0BE
:103C4000B7010E94D01EC91408F48AC0CA94D12CAE
:103C50009FEFC91AD90ACA0CDB1CF60182916F01C9
:103C6000B70190E00E94D01EAC14BD04B1F74FCF55
:103C700060817181072E000C880B990B0E5F1F4F1E
:103C800092CFD32CE894D4F82AE030E0853739F18C
:103C9000232D297FD22E8F3601F148F48835A9F0E3
:103CA000F701868197812B96E2E10C946C1980379D
:103CB00049F08837A9F7D4FE02C06894D2F820E111
:103CC00030E00DC06894D4F8F6CF34FE03C0822FE4
:103CD0008660D82E20E132E002C028E030E0F80112
:103CE000D7FE0FC060817181828193810C5F1F4F6D
:103CF000A5010E94001FC82ECA183D2CE89437F871
:103D000067CF6081718190E080E00E5F1F4FF0CF40
:103D100042FC02C0839478CF8394839475CF842D22
:103D2000867809F471CFF6CFB70180E290E00E9467
:103D3000D01E83948214C0F3512C73CF522C581888
:103D4000821408F46ECFF8CF842D867809F47BCFE7
:103D50008BE241FE80E247FC8DE2B70190E071CF3B
:103D6000B70180E390E00E94D01E9A946CCF8FEF51
:103D70009FEF99CFFC010590615070400110D8F77A
:103D8000809590958E0F9F1F0895FC0161507040A3
:103D900001900110D8F7809590958E0F9F1F089580
:103DA0000F931F93CF93DF93182F092FEB018B8174
:103DB00081FD09C01FEF0FEF812F902FDF91CF9171
:103DC0001F910F91089582FF14C02E813F818C8135
:103DD0009D81281739073CF4E881F981CF010196CC
:103DE0009983888310838E819F8101969F838E8320
:103DF000E3CFE885F985812F0995892BA1F3DACFE7
:103E0000FA01AA27283051F1203181F1E8946F930B
:103E10006E7F6E5F7F4F8F4F9F4FAF4FB1E03ED0B1
:103E2000B4E03CD0670F781F891F9A1FA11D680F4F
:103E3000791F8A1F911DA11D6A0F711D811D911D82
:103E4000A11D20D009F468943F912AE0269F1124F7
:103E50003019305D3193DEF6CF010895462F47705B
:103E6000405D4193B3E00FD0C9F7F6CF462F4F70B6
:103E7000405D4A3318F0495D31FD4052419302D014
:103E8000A9F7EACFB4E0A6959795879577956795BA
:103E9000BA95C9F700976105710508959B01AC01BA
:103EA0000A2E06945795479537952795BA95C9F7E1
:103EB000620F731F841F951FA01D089511E0C2E6B5
:103EC000D1E004C0FE010E94D7192196C336D10764
:063ED000C9F7F894FFCFD2
:103ED6002602580203000000B5058000000000001D
:103EE6006410B71DC8206E3BAC30D9269041DC76F5
:103EF600F4516B6B5861B24D3C7105502083B8ED9F
:103F060044930FF0E8A3D6D68CB361CBB0C2649BC2
:103F1600D4D2D38678E20AA01CF2BDBD000001000F
:103F2600020000019C095D0B91091F097E09B20878
:103F3600930840083E092C080908EF07CF076707D2
:103F46001B0B000000000402D5030204180239020C
:103F560023022E026D0244025902B8040C03020227
:103F6600000000002605D503050473053604140475
:103F76002804000000005B0B0000000000000000A9
:103F8600650C270B510B00000000CE0B72656164B7
:103F96005F6269747300726561645F696E707574DF
:103FA6005F6269747300726561645F696E707574CF
:103FB6005F72656769737465727300726561645FC9
:103FC60072656769737465727300496C6C656761C5
:103FD6006C206E62206F662076616C756573202595
:103FE6006420696E20257320286D61782025642958
:103FF6000A00496C6C6567616C20646174612061BC
:1040060064647265737320307825305820696E2099
:1040160025730A00496C6C6567616C206461746184
:104026002061646472657373203078253058206986
:104036006E2077726974655F6269740A00496C6CF8
:104046006567616C20646174612076616C756520BA
:10405600307825305820696E2077726974655F6202
:10406600697420726571756573742061742061646A
:104076006472657373202530580A00496C6C656755
:10408600616C20646174612061646472657373207D
:10409600307825305820696E2077726974655F72B2
:1040A600656769737465720A00496C6C6567616C53
:1040B600206E756D626572206F662076616C75651F
:1040C6007320256420696E2077726974655F626962
:1040D600747320286D6178202564290A00496C6C68
:1040E6006567616C206461746120616464726573E4
:1040F6007320307825305820696E20777269746590
:104106005F626974730A00496C6C6567616C206E46
:10411600756D626572206F662076616C75657320B9
:10412600256420696E2077726974655F72656769B8
:10413600737465727320286D6178202564290A00DE
:10414600496C6C6567616C206461746120616464AC
:104156007265737320307825305820696E20777227
:104166006974655F7265676973746572730A004C7A
:104176004D42332E312E3400496C6C6567616C20DC
:104186006E62206F662076616C75657320285725F0
:10419600642C205225642920696E20777269746523
:1041A6005F616E645F726561645F7265676973748F
:1041B60065727320286D6178205725642C2052255E
:1041C60064290A00496C6C6567616C2064617461DE
:1041D600207265616420616464726573732030784F
:1041E600253058206F722077726974652061646487
:1041F600726573732030782530582077726974653C
:104206005F616E645F726561645F7265676973742E
:104216006572730A00556E6B6E6F776E204D6F6414
:104226006275732066756E6374696F6E20636F6462
:10423600653A2030782530580A004661696C656415
:1042460020746F207374617274204D6F646275738D
:10425600205254552053657276657221000D0A006E
:00000001FF
